{
  "contractName": "Game",
  "abi": [
    {
      "constant": true,
      "inputs": [],
      "name": "entryFee",
      "outputs": [
        {
          "name": "",
          "type": "uint256"
        }
      ],
      "payable": false,
      "stateMutability": "view",
      "type": "function"
    },
    {
      "constant": true,
      "inputs": [
        {
          "name": "",
          "type": "address"
        }
      ],
      "name": "balances",
      "outputs": [
        {
          "name": "",
          "type": "uint256"
        }
      ],
      "payable": false,
      "stateMutability": "view",
      "type": "function"
    },
    {
      "inputs": [],
      "payable": false,
      "stateMutability": "nonpayable",
      "type": "constructor"
    },
    {
      "anonymous": false,
      "inputs": [
        {
          "indexed": false,
          "name": "sender",
          "type": "address"
        },
        {
          "indexed": false,
          "name": "to",
          "type": "address"
        },
        {
          "indexed": false,
          "name": "amount",
          "type": "uint256"
        }
      ],
      "name": "LogSubmit",
      "type": "event"
    },
    {
      "constant": false,
      "inputs": [],
      "name": "registerPlayer",
      "outputs": [],
      "payable": true,
      "stateMutability": "payable",
      "type": "function"
    },
    {
      "constant": true,
      "inputs": [],
      "name": "getAward",
      "outputs": [
        {
          "name": "",
          "type": "uint256"
        }
      ],
      "payable": false,
      "stateMutability": "view",
      "type": "function"
    },
    {
      "constant": true,
      "inputs": [],
      "name": "getEntryFee",
      "outputs": [
        {
          "name": "",
          "type": "uint256"
        }
      ],
      "payable": false,
      "stateMutability": "view",
      "type": "function"
    },
    {
      "constant": true,
      "inputs": [
        {
          "name": "answer",
          "type": "string"
        }
      ],
      "name": "checkAnswer",
      "outputs": [
        {
          "name": "",
          "type": "bool"
        }
      ],
      "payable": false,
      "stateMutability": "view",
      "type": "function"
    },
    {
      "constant": false,
      "inputs": [
        {
          "name": "answer",
          "type": "string"
        }
      ],
      "name": "submit",
      "outputs": [],
      "payable": false,
      "stateMutability": "nonpayable",
      "type": "function"
    }
  ],
  "bytecode": "0x60806040526040805190810160405280600281526020017f34320000000000000000000000000000000000000000000000000000000000008152506001908051906020019061004f929190610070565b5034801561005c57600080fd5b5066470de4df820000600081905550610115565b828054600181600116156101000203166002900490600052602060002090601f016020900481019282601f106100b157805160ff19168380011785556100df565b828001600101855582156100df579182015b828111156100de5782518255916020019190600101906100c3565b5b5090506100ec91906100f0565b5090565b61011291905b8082111561010e5760008160009055506001016100f6565b5090565b90565b610650806101246000396000f300608060405260043610610083576000357c0100000000000000000000000000000000000000000000000000000000900463ffffffff168063072ea61c1461008857806327e235e3146100b35780635c07a4b01461010a578063b52bd9c614610114578063d99a8dc314610195578063e586a4f0146101fe578063fee5035914610229575b600080fd5b34801561009457600080fd5b5061009d610254565b6040518082815260200191505060405180910390f35b3480156100bf57600080fd5b506100f4600480360381019080803573ffffffffffffffffffffffffffffffffffffffff16906020019092919050505061025a565b6040518082815260200191505060405180910390f35b610112610272565b005b34801561012057600080fd5b5061017b600480360381019080803590602001908201803590602001908080601f01602080910402602001604051908101604052809392919081815260200183838082843782019150505050505091929192905050506102d1565b604051808215151515815260200191505060405180910390f35b3480156101a157600080fd5b506101fc600480360381019080803590602001908201803590602001908080601f016020809104026020016040519081016040528093929190818152602001838380828437820191505050505050919291929050505061037e565b005b34801561020a57600080fd5b50610213610523565b6040518082815260200191505060405180910390f35b34801561023557600080fd5b5061023e61052c565b6040518082815260200191505060405180910390f35b60005481565b60026020528060005260406000206000915090505481565b6000543414151561028257600080fd5b34600260003373ffffffffffffffffffffffffffffffffffffffff1673ffffffffffffffffffffffffffffffffffffffff16815260200190815260200160002060008282540192505081905550565b60006103778260018054600181600116156101000203166002900480601f01602080910402602001604051908101604052809291908181526020018280546001816001161561010002031660029004801561036d5780601f106103425761010080835404028352916020019161036d565b820191906000526020600020905b81548152906001019060200180831161035057829003601f168201915b505050505061054b565b9050919050565b600061038861052c565b905061042e8260018054600181600116156101000203166002900480601f0160208091040260200160405190810160405280929190818152602001828054600181600116156101000203166002900480156104245780601f106103f957610100808354040283529160200191610424565b820191906000526020600020905b81548152906001019060200180831161040757829003601f168201915b505050505061054b565b151561043957600080fd5b3373ffffffffffffffffffffffffffffffffffffffff166108fc829081150290604051600060405180830381858888f1935050505015801561047f573d6000803e3d6000fd5b507f68539aaf906d11e9a1de97dd29e0fcec0fcb40b6ba00ce625cef41f929ef0fd9303383604051808473ffffffffffffffffffffffffffffffffffffffff1673ffffffffffffffffffffffffffffffffffffffff1681526020018373ffffffffffffffffffffffffffffffffffffffff1673ffffffffffffffffffffffffffffffffffffffff168152602001828152602001935050505060405180910390a15050565b60008054905090565b60003073ffffffffffffffffffffffffffffffffffffffff1631905090565b6000816040518082805190602001908083835b602083101515610583578051825260208201915060208101905060208303925061055e565b6001836020036101000a038019825116818451168082178552505050505050905001915050604051809103902060001916836040518082805190602001908083835b6020831015156105ea57805182526020820191506020810190506020830392506105c5565b6001836020036101000a038019825116818451168082178552505050505050905001915050604051809103902060001916149050929150505600a165627a7a723058207cef4f6de76d71624e8faa934a7eee11d2946596b33702b7838ac49fdd151ef00029",
  "source": "pragma solidity ^0.4.17;\n\ncontract Game {\n    uint public entryFee;\n    string correctAnswer = \"42\";\n    mapping (address => uint256) public balances;\n\n    event LogSubmit(address sender, address to, uint amount);\n\n    constructor() public {\n        entryFee = 20 finney; // const?\n    }\n\n    function registerPlayer() public payable {\n        // require the user to send you cash to add to the\n        // check if player has already been registered ?\n        require(msg.value == entryFee);\n\n        // ensure only paying once. TODO return something in this case\n        //require(balances[msg.sender] < entryFee);\n        balances[msg.sender] +=msg.value;\n        // save sender maybe?\n    }\n\n    function getAward() public view returns (uint) {\n        return address(this).balance;\n    }\n\n    function getEntryFee() public view returns (uint) {\n        return entryFee;\n    }\n\n    function compareStrings (string a, string b) internal returns (bool){\n       return keccak256(a) == keccak256(b);\n   }\n\n   function checkAnswer(string answer) public view returns (bool) {\n     return compareStrings(answer, correctAnswer);\n   }\n\n    function submit(string answer) public {\n      // use require?\n      uint award = getAward();\n      require(compareStrings(answer, correctAnswer));\n      msg.sender.transfer(award);\n      LogSubmit(address(this), msg.sender, award);\n    }\n\n}\n",
  "sourcePath": "/Users/VK/code/hackathons/htn/Sphinx-HTN/contracts/Game.sol",
  "compiler": {
    "name": "solc",
    "version": "0.4.24+commit.e67f0147.Emscripten.clang"
  },
  "schemaVersion": "2.0.1",
  "updatedAt": "2018-09-16T12:30:03.987Z"
}